{
  "_format": "hh-sol-artifact-1",
  "contractName": "CoffeePortal",
  "sourceName": "contracts/CoffeePortal.sol",
  "abi": [
    {
      "inputs": [],
      "stateMutability": "payable",
      "type": "constructor"
    },
    {
      "anonymous": false,
      "inputs": [
        {
          "indexed": true,
          "internalType": "address",
          "name": "from",
          "type": "address"
        },
        {
          "indexed": false,
          "internalType": "uint256",
          "name": "timestamp",
          "type": "uint256"
        },
        {
          "indexed": false,
          "internalType": "string",
          "name": "message",
          "type": "string"
        },
        {
          "indexed": false,
          "internalType": "string",
          "name": "name",
          "type": "string"
        }
      ],
      "name": "NewCoffee",
      "type": "event"
    },
    {
      "inputs": [
        {
          "internalType": "string",
          "name": "_message",
          "type": "string"
        },
        {
          "internalType": "string",
          "name": "_name",
          "type": "string"
        },
        {
          "internalType": "uint256",
          "name": "_payAmount",
          "type": "uint256"
        }
      ],
      "name": "buyCoffee",
      "outputs": [],
      "stateMutability": "payable",
      "type": "function"
    },
    {
      "inputs": [],
      "name": "getAllCoffee",
      "outputs": [
        {
          "components": [
            {
              "internalType": "address",
              "name": "sender",
              "type": "address"
            },
            {
              "internalType": "string",
              "name": "message",
              "type": "string"
            },
            {
              "internalType": "string",
              "name": "name",
              "type": "string"
            },
            {
              "internalType": "uint256",
              "name": "timestamp",
              "type": "uint256"
            }
          ],
          "internalType": "struct CoffeePortal.Coffee[]",
          "name": "",
          "type": "tuple[]"
        }
      ],
      "stateMutability": "view",
      "type": "function"
    },
    {
      "inputs": [],
      "name": "getTotalCoffee",
      "outputs": [
        {
          "internalType": "uint256",
          "name": "",
          "type": "uint256"
        }
      ],
      "stateMutability": "view",
      "type": "function"
    },
    {
      "inputs": [],
      "name": "owner",
      "outputs": [
        {
          "internalType": "address payable",
          "name": "",
          "type": "address"
        }
      ],
      "stateMutability": "view",
      "type": "function"
    }
  ],
  "bytecode": "0x608060405233600160006101000a81548173ffffffffffffffffffffffffffffffffffffffff021916908373ffffffffffffffffffffffffffffffffffffffff160217905550610fb1806100546000396000f3fe60806040526004361061003f5760003560e01c8063441315c5146100445780634839ee3f146100605780638da5cb5b1461008b578063d386beca146100b6575b600080fd5b61005e60048036038101906100599190610856565b6100e1565b005b34801561006c57600080fd5b5061007561039e565b6040516100829190610be0565b60405180910390f35b34801561009757600080fd5b506100a06103cc565b6040516100ad9190610b03565b60405180910390f35b3480156100c257600080fd5b506100cb6103f2565b6040516100d89190610b1e565b60405180910390f35b600066038d7ea4c68000905080821115610130576040517f08c379a000000000000000000000000000000000000000000000000000000000815260040161012790610ba0565b60405180910390fd5b60016000808282546101429190610d07565b925050819055506101886040518060400160405280601a81526020017f257320686173206a7573742073656e74206120636f6666656521000000000000815250336105d5565b600260405180608001604052803373ffffffffffffffffffffffffffffffffffffffff16815260200186815260200185815260200142815250908060018154018082558091505060019003906000526020600020906004020160009091909190915060008201518160000160006101000a81548173ffffffffffffffffffffffffffffffffffffffff021916908373ffffffffffffffffffffffffffffffffffffffff160217905550602082015181600101908051906020019061024d929190610736565b50604082015181600201908051906020019061026a929190610736565b506060820151816003015550506000600160009054906101000a900473ffffffffffffffffffffffffffffffffffffffff1673ffffffffffffffffffffffffffffffffffffffff16836040516102bf90610aee565b60006040518083038185875af1925050503d80600081146102fc576040519150601f19603f3d011682016040523d82523d6000602084013e610301565b606091505b5050905080610345576040517f08c379a000000000000000000000000000000000000000000000000000000000815260040161033c90610bc0565b60405180910390fd5b3373ffffffffffffffffffffffffffffffffffffffff167f5d202edb9ac9aca913189e3c829f7fdbba23859e91379c70ecf7874fe39632a742878760405161038f93929190610bfb565b60405180910390a25050505050565b60006103c4604051806060016040528060218152602001610f5b60219139600054610671565b600054905090565b600160009054906101000a900473ffffffffffffffffffffffffffffffffffffffff1681565b60606002805480602002602001604051908101604052809291908181526020016000905b828210156105cc57838290600052602060002090600402016040518060800160405290816000820160009054906101000a900473ffffffffffffffffffffffffffffffffffffffff1673ffffffffffffffffffffffffffffffffffffffff1673ffffffffffffffffffffffffffffffffffffffff16815260200160018201805461049f90610ded565b80601f01602080910402602001604051908101604052809291908181526020018280546104cb90610ded565b80156105185780601f106104ed57610100808354040283529160200191610518565b820191906000526020600020905b8154815290600101906020018083116104fb57829003601f168201915b5050505050815260200160028201805461053190610ded565b80601f016020809104026020016040519081016040528092919081815260200182805461055d90610ded565b80156105aa5780601f1061057f576101008083540402835291602001916105aa565b820191906000526020600020905b81548152906001019060200180831161058d57829003601f168201915b5050505050815260200160038201548152505081526020019060010190610416565b50505050905090565b61066d82826040516024016105eb929190610b40565b6040516020818303038152906040527f319af333000000000000000000000000000000000000000000000000000000007bffffffffffffffffffffffffffffffffffffffffffffffffffffffff19166020820180517bffffffffffffffffffffffffffffffffffffffffffffffffffffffff838183161783525050505061070d565b5050565b6107098282604051602401610687929190610b70565b6040516020818303038152906040527f9710a9d0000000000000000000000000000000000000000000000000000000007bffffffffffffffffffffffffffffffffffffffffffffffffffffffff19166020820180517bffffffffffffffffffffffffffffffffffffffffffffffffffffffff838183161783525050505061070d565b5050565b60008151905060006a636f6e736f6c652e6c6f679050602083016000808483855afa5050505050565b82805461074290610ded565b90600052602060002090601f01602090048101928261076457600085556107ab565b82601f1061077d57805160ff19168380011785556107ab565b828001600101855582156107ab579182015b828111156107aa57825182559160200191906001019061078f565b5b5090506107b891906107bc565b5090565b5b808211156107d55760008160009055506001016107bd565b5090565b60006107ec6107e784610c65565b610c40565b90508281526020810184848401111561080457600080fd5b61080f848285610dab565b509392505050565b600082601f83011261082857600080fd5b81356108388482602086016107d9565b91505092915050565b60008135905061085081610f43565b92915050565b60008060006060848603121561086b57600080fd5b600084013567ffffffffffffffff81111561088557600080fd5b61089186828701610817565b935050602084013567ffffffffffffffff8111156108ae57600080fd5b6108ba86828701610817565b92505060406108cb86828701610841565b9150509250925092565b60006108e18383610a66565b905092915050565b6108f281610d6f565b82525050565b61090181610d5d565b82525050565b61091081610d5d565b82525050565b600061092182610ca6565b61092b8185610cc9565b93508360208202850161093d85610c96565b8060005b85811015610979578484038952815161095a85826108d5565b945061096583610cbc565b925060208a01995050600181019050610941565b50829750879550505050505092915050565b600061099682610cb1565b6109a08185610ce5565b93506109b0818560208601610dba565b6109b981610edd565b840191505092915050565b60006109cf82610cb1565b6109d98185610cf6565b93506109e9818560208601610dba565b6109f281610edd565b840191505092915050565b6000610a0a601b83610cf6565b9150610a1582610eee565b602082019050919050565b6000610a2d601483610cf6565b9150610a3882610f17565b602082019050919050565b6000610a50600083610cda565b9150610a5b82610f40565b600082019050919050565b6000608083016000830151610a7e60008601826108f8565b5060208301518482036020860152610a96828261098b565b91505060408301518482036040860152610ab0828261098b565b9150506060830151610ac56060860182610ad0565b508091505092915050565b610ad981610da1565b82525050565b610ae881610da1565b82525050565b6000610af982610a43565b9150819050919050565b6000602082019050610b1860008301846108e9565b92915050565b60006020820190508181036000830152610b388184610916565b905092915050565b60006040820190508181036000830152610b5a81856109c4565b9050610b696020830184610907565b9392505050565b60006040820190508181036000830152610b8a81856109c4565b9050610b996020830184610adf565b9392505050565b60006020820190508181036000830152610bb9816109fd565b9050919050565b60006020820190508181036000830152610bd981610a20565b9050919050565b6000602082019050610bf56000830184610adf565b92915050565b6000606082019050610c106000830186610adf565b8181036020830152610c2281856109c4565b90508181036040830152610c3681846109c4565b9050949350505050565b6000610c4a610c5b565b9050610c568282610e1f565b919050565b6000604051905090565b600067ffffffffffffffff821115610c8057610c7f610eae565b5b610c8982610edd565b9050602081019050919050565b6000819050602082019050919050565b600081519050919050565b600081519050919050565b6000602082019050919050565b600082825260208201905092915050565b600081905092915050565b600082825260208201905092915050565b600082825260208201905092915050565b6000610d1282610da1565b9150610d1d83610da1565b9250827fffffffffffffffffffffffffffffffffffffffffffffffffffffffffffffffff03821115610d5257610d51610e50565b5b828201905092915050565b6000610d6882610d81565b9050919050565b6000610d7a82610d81565b9050919050565b600073ffffffffffffffffffffffffffffffffffffffff82169050919050565b6000819050919050565b82818337600083830152505050565b60005b83811015610dd8578082015181840152602081019050610dbd565b83811115610de7576000848401525b50505050565b60006002820490506001821680610e0557607f821691505b60208210811415610e1957610e18610e7f565b5b50919050565b610e2882610edd565b810181811067ffffffffffffffff82111715610e4757610e46610eae565b5b80604052505050565b7f4e487b7100000000000000000000000000000000000000000000000000000000600052601160045260246000fd5b7f4e487b7100000000000000000000000000000000000000000000000000000000600052602260045260246000fd5b7f4e487b7100000000000000000000000000000000000000000000000000000000600052604160045260246000fd5b6000601f19601f8301169050919050565b7f496e73756666696369656e742045746865722070726f76696465640000000000600082015250565b7f4661696c656420746f2073656e64206d6f6e6579000000000000000000000000600082015250565b50565b610f4c81610da1565b8114610f5757600080fd5b5056fe5765206861766520256420746f74616c20636f6666656520726563696576656420a26469706673582212208edb3aab4dd55f9a42a43868efd456cb285f3eecc184958ed2c86b876618b31264736f6c63430008040033",
  "linkReferences": {},
  "deployedLinkReferences": {}
}